:0400000007EF00F016
:0A0008006682F5ED0CF055EF18F0DC
:10100000003738392F3435362A3132332D23303DED
:101010002B4C656431204F66660D004C65643220B0
:101020004F66660D004C656431204F6E0D004C65B7
:0B1030006432204F6E0D0025690000A7
:10103C00000E0001F46F000EF56F000EF66F000E3F
:10104C00F76F49EF0AF0AC98AC94B89645C0D9FF4D
:10105C0046C0DAFFDECF1AF0DECF1BF0DECF1CF07D
:10106C00DECF1DF0000EDDEC10F01AC02CF01BC012
:10107C002DF01CC02EF01DC02FF0000E286E240E7B
:10108C00296EF40E2A6E4A0E2B6E10EC0FF028C04F
:10109C00F8F029C0F9F02AC0FAF02BC0FBF0000ED2
:1010AC002C6E000E2D6E800E2E6E420E2F6EF8C022
:1010BC0028F0F9C029F0FAC02AF0FBC02BF010EC94
:1010CC000FF028C0E6F029C0E7F02AC0E8F02BC0EA
:1010DC00E9F0000E0001EA6F000EEB6F800EEC6F72
:1010EC00BF0EED6F94EC0AF0E6C0F4F0E7C0F5F03B
:1010FC00E8C0F6F0E9C0F7F074EF0AF0AC98AC84F5
:10110C00B89645C0D9FF46C0DAFFDECF1AF0DECF65
:10111C001BF0DECF1CF0DECF1DF0000EDDEC10F06E
:10112C001AC02CF01BC02DF01CC02EF01DC02FF0CF
:10113C00000E286E240E296EF40E2A6E4A0E2B6EAB
:10114C0010EC0FF028C0F8F029C0F9F02AC0FAF022
:10115C002BC0FBF0000E2C6E000E2D6E800E2E6E32
:10116C00410E2F6EF8C028F0F9C029F0FAC02AF011
:10117C00FBC02BF010EC0FF028C0E6F029C0E7F014
:10118C002AC0E8F02BC0E9F0000E0001EA6F000E57
:10119C00EB6F800EEC6FBF0EED6F94EC0AF0E6C0B7
:1011AC00F4F0E7C0F5F0E8C0F6F0E9C0F7F074EF42
:1011BC000AF0AC98AC94B88645C0D9FF46C0DAFFAB
:1011CC00DECF1AF0DECF1BF0DECF1CF0DECF1DF031
:1011DC00000EDDEC10F01AC02CF01BC02DF01CC062
:1011EC002EF01DC02FF0000E286E240E296EF40E6A
:1011FC002A6E4A0E2B6E10EC0FF028C0F8F029C0A6
:10120C00F9F02AC0FAF02BC0FBF0000E2C6E000E89
:10121C002D6E800E2E6E410E2F6EF8C028F0F9C088
:10122C0029F0FAC02AF0FBC02BF010EC0FF028C00C
:10123C00E6F029C0E7F02AC0E8F02BC0E9F0000E78
:10124C000001EA6F000EEB6F800EEC6FBF0EED6FBE
:10125C0094EC0AF0E6C0F4F0E7C0F5F0E8C0F6F064
:10126C00E9C0F7F074EF0AF0AC98AC84B88645C0CE
:10127C00D9FF46C0DAFFDECF1AF0DECF1BF0DECF8F
:10128C001CF0DECF1DF0000EDDEC10F01AC02CF0BF
:10129C001BC02DF01CC02EF01DC02FF0000E286EB0
:1012AC00240E296EF40E2A6E4A0E2B6E10EC0FF0E3
:1012BC0028C0F8F029C0F9F02AC0FAF02BC0FBF0D6
:1012CC00000E2C6E000E2D6E800E2E6E400E2F6EAC
:1012DC00F8C028F0F9C029F0FAC02AF0FBC02BF0B6
:1012EC0010EC0FF028C0E6F029C0E7F02AC0E8F0B7
:1012FC002BC0E9F0000E0001EA6F000EEB6F800EC0
:10130C00EC6FBF0EED6F94EC0AF0E6C0F4F0E7C0A2
:10131C00F5F0E8C0F6F0E9C0F7F074EF0AF0AC882D
:10132C00B89645C0D9FF46C0DAFFDECF1AF0DECF43
:10133C001BF0DECF1CF0DECF1DF0000EDDEC10F04C
:10134C001AC02CF01BC02DF01CC02EF01DC02FF0AD
:10135C00000E286E240E296EF40E2A6E4A0E2B6E89
:10136C0010EC0FF028C0F8F029C0F9F02AC0FAF000
:10137C002BC0FBF0000E2C6E000E2D6E800E2E6E10
:10138C00400E2F6EF8C028F0F9C029F0FAC02AF0F0
:10139C00FBC02BF010EC0FF028C0E6F029C0E7F0F2
:1013AC002AC0E8F02BC0E9F0000E0001EA6F000E35
:1013BC00EB6F800EEC6FBF0EED6F94EC0AF0E6C095
:1013CC00F4F0E7C0F5F0E8C0F6F0E9C0F7F074EF20
:1013DC000AF0AC88B88645C0D9FF46C0DAFFDECF2C
:1013EC001AF0DECF1BF0DECF1CF0DECF1DF0000EAE
:1013FC00DDEC10F01AC02CF01BC02DF01CC02EF030
:10140C001DC02FF0000E286E240E296EF40E2A6ECD
:10141C004A0E2B6E10EC0FF028C0F8F029C0F9F032
:10142C002AC0FAF02BC0FBF0000E2C6E000E2D6EB5
:10143C00800E2E6E400E2F6EF8C028F0F9C029F0E9
:10144C00FAC02AF0FBC02BF010EC0FF028C0E6F02D
:10145C0029C0E7F02AC0E8F02BC0E9F0000E00012B
:10146C00EA6F000EEB6F800EEC6FBF0EED6F94EC1D
:10147C000AF0E6C0F4F0E7C0F5F0E8C0F6F0E9C019
:10148C00F7F074EF0AF020EE04F04550D9264650E0
:10149C00DA22DF50F26FF36BF351000AD8B459EF34
:1014AC000AF074EF0AF0F251000AD8B429EF08F0F0
:1014BC00010AD8B484EF08F0030AD8B4DFEF08F0BF
:1014CC00010AD8B43AEF09F0070AD8B495EF09F03D
:1014DC00010AD8B4EFEF09F074EF0AF0F4C01AF077
:1014EC00F5C01BF0F6C01CF0F7C01DF0A8EC14F012
:1014FC001A50AF6EF4C01AF0F5C01BF0F6C01CF019
:10150C00F7C01DF0A8EC14F01BC01AF01CC01BF0A7
:10151C001DC01CF01D6A1A50B06E12000001E9517A
:10152C00800BEE6FE951E925F06FE8AFA0EF0AF000
:10153C00A2EF0AF0A3EF0AF0F081F051D8B4A9EFB2
:10154C000AF0ABEF0AF0C0EF0AF0F029D8A4B1EF23
:10155C000AF0B3EF0AF0BBEF0AF0000EE66F000ED4
:10156C00E76F000EE86F000EE96FE88F000EE96F71
:10157C00C8EF0AF0000EE66F000EE76F000EE86F82
:10158C00000EE96FED51800BEF6FEE51EF19D8B4EF
:10159C00D2EF0AF0D4EF0AF0D5EF0AF0EE8DED5150
:1015AC00ED25EF6FECAFDDEF0AF0DFEF0AF0E0EFC7
:1015BC000AF0EF81EF51D8B4E6EF0AF0E8EF0AF049
:1015CC00FDEF0AF0EF29D8A4EEEF0AF0F0EF0AF0E5
:1015DC00F8EF0AF0000EEA6F000EEB6F000EEC6FE6
:1015EC00000EED6FEC8F000EED6F05EF0BF0000EA3
:1015FC00EA6F000EEB6F000EEC6F000EED6FF0510A
:10160C00EF5DD8B00CEF0BF00EEF0BF035EF0BF0ED
:10161C00EEAD13EF0BF015EF0BF017EF0BF0800E98
:10162C00EE1BF0C0F1F0EFC0F0F0F1C0EFF0E6C04F
:10163C00F1F0EAC0E6F0F1C0EAF0E7C0F1F0EBC07F
:10164C00E7F0F1C0EBF0E8C0F1F0ECC0E8F0F1C06D
:10165C00ECF0E9C0F1F0EDC0E9F0F1C0EDF0000EF6
:10166C00F16FF051EFC041F0426A415E000E425AF8
:10167C0042BE4AEF0BF0425009E11A0E415CD8A071
:10168C004AEF0BF04CEF0BF083EF0BF0E651E71148
:10169C00E811E911D8A455EF0BF058EF0BF0010E3F
:1016AC0059EF0BF0000EF16F000EE66F000EE76FB6
:1016BC00000EE86F000EE96FEFC0F0F08CEF0BF04E
:1016CC00F1A16BEF0BF06DEF0BF073EF0BF0D8900B
:1016DC00F1310109F16F75EF0BF0D890F133E6A100
:1016EC007AEF0BF07CEF0BF07DEF0BF0F18FE9351F
:1016FC00E933E833E733E633F02BEF51F05DD8A054
:10170C008AEF0BF08CEF0BF066EF0BF0EEBD91EF68
:10171C000BF093EF0BF0D3EF0BF0F051D8A499EF43
:10172C000BF09BEF0BF0A5EF0BF0000EE66F000E2D
:10173C00E76F000EE86F000EE96FF4EF0CF0EA5162
:10174C00E627EB51E723EC51E823ED51E923E9A11E
:10175C00B2EF0BF0B4EF0BF060EF0CF0F1A1B9EFBE
:10176C000BF0BBEF0BF0C1EF0BF0D890F13101098E
:10177C00F16FC3EF0BF0D890F133E6A1C8EF0BF08B
:10178C00CAEF0BF0CBEF0BF0F18FE935E933E8330F
:10179C00E733E633F02B60EF0CF0EA51E65DEB51EA
:1017AC00E759EC51E859E951800A416EED51800A34
:1017BC004158D8B0E4EF0BF0E6EF0BF011EF0CF062
:1017CC00E651EA5D416EE751EB59426EE851EC5936
:1017DC00436EE951ED59446EFF0E4124E66FFF0E46
:1017EC004220E76FFF0E4320E86FFF0E4420E96FA5
:1017FC00800EEE1BF16DF151D8A407EF0CF009EF40
:10180C000CF019EF0CF0010EE627000EE723E8238D
:10181C00E92319EF0CF0EA51E65FEB51E75BEC5171
:10182C00E85BED51E95BE651E711E811E911D8A449
:10183C0022EF0CF024EF0CF059EF0CF0F151D8A47E
:10184C002AEF0CF02CEF0CF059EF0CF0000EE66FB9
:10185C00000EE76F000EE86F000EE96FF4EF0CF06E
:10186C00D890E637E737E837E937F1AF40EF0CF0BF
:10187C0042EF0CF043EF0CF0E681F1A148EF0CF0D5
:10188C004AEF0CF04EEF0CF0D880F13750EF0CF023
:10189C00D890F137F051D8B456EF0CF058EF0CF05B
:1018AC0059EF0CF0F007E8AF5EEF0CF060EF0CF0C6
:1018BC0036EF0CF0000EEF6FF1AF67EF0CF069EF45
:1018CC000CF081EF0CF0F1C041F07F0E4116D8B452
:1018DC0072EF0CF074EF0CF078EF0CF0010EEF6F70
:1018EC0081EF0CF0E6A17DEF0CF07FEF0CF081EFB7
:1018FC000CF074EF0CF0EF51D8B487EF0CF089EFCB
:10190C000CF0B4EF0CF0010EE627000EE723E823F1
:10191C00E923E9A194EF0CF096EF0CF0B4EF0CF086
:10192C00E6C041F0E7C042F0E8C043F0E9C044F043
:10193C004434443243324232413241C0E6F042C078
:10194C00E7F043C0E8F044C0E9F0F029D8B4B1EFB7
:10195C000CF0B3EF0CF0B4EF0CF0F02BF029D8B482
:10196C00BAEF0CF0BCEF0CF0C4EF0CF0F051D8A4B3
:10197C00C2EF0CF0C4EF0CF0D6EF0CF0000EE66FDB
:10198C00000EE76F000EE86F000EE96FF051D8A45F
:10199C00D2EF0CF0D4EF0CF0D6EF0CF0000EEE6F93
:1019AC00F0A1DBEF0CF0DDEF0CF0E0EF0CF0E88FCA
:1019BC00E1EF0CF0E89FD890F031E96FEEAFE9EF72
:1019CC000CF0EBEF0CF0ECEF0CF0E98FE6C0E6F06E
:1019DC00E7C0E7F0E8C0E8F0E9C0E9F01200060063
:1019EC00FACF10F0FBCF11F0D9CF12F0DACF13F001
:1019FC00F3CF14F0F4CF15F0F6CF16F0F7CF17F0B5
:101A0C00F8CF18F0F5CF19F0F2A80FEF0DF011EF99
:101A1C000DF01AEF0DF0F2A216EF0DF018EF0DF01D
:101A2C001AEF0DF017EC1AF0F0A61FEF0DF021EFE6
:101A3C000DF02AEF0DF0F0A026EF0DF028EF0DF0D1
:101A4C002AEF0DF015EC1AF0F0A82FEF0DF031EF96
:101A5C000DF03AEF0DF0F0A236EF0DF038EF0DF07F
:101A6C003AEF0DF013EC1AF0F2A63FEF0DF041EF48
:101A7C000DF05CEF0DF0F2A046EF0DF048EF0DF01D
:101A8C005CEF0DF081A84DEF0DF04FEF0DF05CEF1A
:101A9C000DF06304D8A455EF0DF057EF0DF05CEF8B
:101AAC000DF0000E636E000ED1EC19F0F2A661EF92
:101ABC000DF063EF0DF07EEF0DF0F2A068EF0DF07E
:101ACC006AEF0DF07EEF0DF081B86FEF0DF071EF56
:101ADC000DF07EEF0DF06350D8A477EF0DF079EF99
:101AEC000DF07EEF0DF0010E636E010ED1EC19F0CE
:101AFC00F2A683EF0DF085EF0DF0A0EF0DF0F2A044
:101B0C008AEF0DF08CEF0DF0A0EF0DF081AA91EFA4
:101B1C000DF093EF0DF0A0EF0DF06204D8A499EF47
:101B2C000DF09BEF0DF0A0EF0DF0000E626E000EAD
:101B3C00C4EC19F0F2A6A5EF0DF0A7EF0DF0C2EF73
:101B4C000DF0F2A0ACEF0DF0AEEF0DF0C2EF0DF01A
:101B5C0081BAB3EF0DF0B5EF0DF0C2EF0DF062509E
:101B6C00D8A4BBEF0DF0BDEF0DF0C2EF0DF0010EE0
:101B7C00626E010EC4EC19F0F2A6C7EF0DF0C9EFBE
:101B8C000DF0E4EF0DF0F2A0CEEF0DF0D0EF0DF074
:101B9C00E4EF0DF081ACD5EF0DF0D7EF0DF0E4EFE5
:101BAC000DF06104D8A4DDEF0DF0DFEF0DF0E4EFE4
:101BBC000DF0000E616E000EB7EC19F0F2A6E9EF15
:101BCC000DF0EBEF0DF006EF0EF0F2A0F0EF0DF0D4
:101BDC00F2EF0DF006EF0EF081BCF7EF0DF0F9EF20
:101BEC000DF006EF0EF06150D8A4FFEF0DF001EFF1
:101BFC000EF006EF0EF0010E616E010EB7EC19F04F
:101C0C00F2A60BEF0EF00DEF0EF028EF0EF0F2A097
:101C1C0012EF0EF014EF0EF028EF0EF081AE19EF6C
:101C2C000EF01BEF0EF028EF0EF06004D8A421EF9D
:101C3C000EF023EF0EF028EF0EF0000E606E000E8B
:101C4C00AAEC19F0F2A62DEF0EF02FEF0EF04AEFE2
:101C5C000EF0F2A034EF0EF036EF0EF04AEF0EF06D
:101C6C0081BE3BEF0EF03DEF0EF04AEF0EF06050F0
:101C7C00D8A443EF0EF045EF0EF04AEF0EF0010E34
:101C8C00606E010EAAEC19F09DAC4FEF0EF051EF07
:101C9C000EF05AEF0EF09EAC56EF0EF058EF0EF021
:101CAC005AEF0EF01DEC1AF0F2AA5FEF0EF061EF96
:101CBC000EF06AEF0EF0F2A466EF0EF068EF0EF085
:101CCC006AEF0EF0F9EC19F09DA06FEF0EF071EFCA
:101CDC000EF07AEF0EF09EA076EF0EF078EF0EF08D
:101CEC007AEF0EF0F3EC19F09DA27FEF0EF081EF7E
:101CFC000EF08AEF0EF09EA286EF0EF088EF0EF03B
:101D0C008AEF0EF0FFEC19F0A0A28FEF0EF091EF1E
:101D1C000EF09AEF0EF0A1A296EF0EF098EF0EF0E7
:101D2C009AEF0EF0EDEC19F09DA89FEF0EF0A1EFDD
:101D3C000EF0AAEF0EF09EA8A6EF0EF0A8EF0EF094
:101D4C00AAEF0EF050EC19F09DAAAFEF0EF0B1EF28
:101D5C000EF0BAEF0EF09EAAB6EF0EF0B8EF0EF042
:101D6C00BAEF0EF0BEEC16F09DA6BFEF0EF0C1EF71
:101D7C000EF0CAEF0EF09EA6C6EF0EF0C8EF0EF0F6
:101D8C00CAEF0EF00FEC1AF0A0A6CFEF0EF0D1EFC9
:101D9C000EF0DAEF0EF0A1A6D6EF0EF0D8EF0EF0A3
:101DAC00DAEF0EF011EC1AF09DA4DFEF0EF0E1EF7C
:101DBC000EF0EAEF0EF09EA4E6EF0EF0E8EF0EF058
:101DCC00EAEF0EF01BEC1AF0A0A0EFEF0EF0F1EF23
:101DDC000EF0FAEF0EF0A1A0F6EF0EF0F8EF0EF009
:101DEC00FAEF0EF019EC1AF019C0F5FF18C0F8FF55
:101DFC0017C0F7FF16C0F6FF15C0F4FF14C0F3FFB1
:101E0C0013C0DAFF12C0D9FF11C0FBFF10C0FAFFDC
:101E1C00669211002B50800B386E2B502B243F6E8A
:101E2C002AAE1BEF0FF01DEF0FF01EEF0FF03F80EF
:101E3C003F50D8B424EF0FF026EF0FF03BEF0FF02C
:101E4C003F28D8A42CEF0FF02EEF0FF036EF0FF049
:101E5C00000E286E000E296E000E2A6E000E2B6EE0
:101E6C002A8E000E2B6E43EF0FF0000E286E000E24
:101E7C00296E000E2A6E000E2B6E2F50800B381A16
:101E8C002F502F24406E2EAE4EEF0FF050EF0FF070
:101E9C0051EF0FF040804050D8B457EF0FF059EF8E
:101EAC000FF06EEF0FF04028D8A45FEF0FF061EF4A
:101EBC000FF069EF0FF0000E2C6E000E2D6E000E61
:101ECC002E6E000E2F6E2E8E000E2F6E76EF0FF0F4
:101EDC00000E2C6E000E2D6E000E2E6E000E2F6E50
:101EEC002C502D102E102F10D8A47FEF0FF081EF57
:101EFC000FF099EF0FF0000E286E000E296E000EF9
:101F0C002A6E000E2B6E800E2A127F0E2B1238506A
:101F1C002B1228C028F029C029F02AC02AF02BC087
:101F2C002BF0DCEF10F03F50D8A49FEF0FF0A1EF97
:101F3C000FF0ABEF0FF0000E286E000E296E000EA6
:101F4C002A6E000E2B6EDCEF10F040503FC030F0CC
:101F5C00316A305E000E315A7F0E3024396E000E1D
:101F6C0031203A6E28C034F029C035F02AC036F042
:101F7C002BC037F0000E286E000E296E000E2A6E54
:101F8C00000E2B6E000E3B6E000E3C6E000E3D6E76
:101F9C00000E3E6E000E406E0CEF10F04050D8B4A8
:101FAC00DAEF0FF0DCEF0FF0F3EF0FF0D8903436E0
:101FBC00353636363736D890283629362A362B36EB
:101FCC003EAEEBEF0FF0EDEF0FF0EEEF0FF02880E1
:101FDC00D8903B363C363D363E362C50345C2D503A
:101FEC0035582E5036582F503758D8A000EF10F0D7
:101FFC0002EF10F00BEF10F03E8C2C50345E2D5095
:10200C00355A2E50365A2F50375A402A190E4064E2
:10201C0012EF10F014EF10F0D4EF0FF03450351025
:10202C0036103710D8B41DEF10F01FEF10F037EF4B
:10203C0010F03B8037EF10F0D890283629362A362E
:10204C002B363EAE2CEF10F02EEF10F02FEF10F0E1
:10205C002880D8903B363C363D363E363906D8A0E3
:10206C003A062AAE3CEF10F03EEF10F022EF10F0E3
:10207C00000E406E3EAE45EF10F047EF10F06BEFE8
:10208C0010F0FF0E3B14306EFF0E3C14316EFF0E41
:10209C003D14326E7F0E3E14336E305031103210C0
:1020AC003310D8B45CEF10F05EEF10F062EF10F06C
:1020BC00010E406E6BEF10F028A067EF10F069EF87
:1020CC0010F06BEF10F05EEF10F04050D8B471EFE1
:1020DC0010F073EF10F097EF10F0010E2826000EA1
:1020EC0029222A222B222BA07EEF10F080EF10F059
:1020FC0097EF10F028C030F029C031F02AC032F030
:10210C002BC033F03334333232323132303230C0D0
:10211C0028F031C029F032C02AF033C02BF0394AF4
:10212C003A2A3ABEA2EF10F03A5008E13928D8A06A
:10213C00A2EF10F0A4EF10F0AFEF10F0000E3A6E1B
:10214C003968000E286E000E296E000E2A6E000EE5
:10215C002B6E3ABEBCEF10F03A5006E13904D8B001
:10216C00BAEF10F0BCEF10F0CAEF10F0000E3A6EA0
:10217C00000E396E000E286E000E296E000E2A6EAF
:10218C00000E2B6E000E386E39C03FF03FA0D1EF21
:10219C0010F0D3EF10F0D6EF10F02A8ED7EF10F02E
:1021AC002A9ED8903F302B6E8DEF0FF01200226ECE
:1021BC002250D8B4E4EF10F0E6EF10F008EF11F075
:1021CC001DBEEDEF10F0EBEF10F008EF11F01AC0A0
:1021DC001EF01BC01FF01CC020F01DC021F01E1EE5
:1021EC001F1E201E211E1E2A000E1F22202221220D
:1021FC001EC024F01FC025F020C026F021C027F0FF
:10220C0010EF11F01AC024F01BC025F01CC026F0F2
:10221C001DC027F01A501B101C101D10D8A419EF4C
:10222C0011F01BEF11F025EF11F0000E1A6E000EDD
:10223C001B6E000E1C6E000E1D6EB6EF11F0960E8E
:10224C00236E2FEF11F0232AD89027322632253215
:10225C002432000E24141E6E000E25141F6E000E68
:10226C002614206EFE0E2714216E1E501F102010F7
:10227C002110D8A444EF11F046EF11F029EF11F022
:10228C0054EF11F0232A010E2426000E25222622BB
:10229C002722D8902732263225322432000E2414DD
:1022AC001E6E000E25141F6E000E2614206EFF0EDF
:1022BC002714216E1E501F1020102110D8A469EF76
:1022CC0011F06BEF11F048EF11F073EF11F02306E2
:1022DC00D890243625362636273626BE78EF11F0D0
:1022EC007AEF11F082EF11F0020E236080EF11F003
:1022FC0082EF11F06DEF11F023B087EF11F089EF41
:10230C0011F08AEF11F0269ED890233223C01EF0D4
:10231C001F6A206A216A1EC021F0206A1F6A1E6A89
:10232C001E5024121F502512205026122150271205
:10233C002250D8B4A4EF11F0A6EF11F0AEEF11F0CB
:10234C001DBEADEF11F0ABEF11F0AEEF11F0278E1B
:10235C0024C01AF025C01BF026C01CF027C01DF0AD
:10236C001200010E226E1A501B10D8B4C0EF11F0DF
:10237C00C2EF11F0D3EF11F01AC0D9FF1BC0DAFF76
:10238C00DF30E832E832070B1C6E070E1C64D1EF0D
:10239C0011F0D3EF11F036EF12F0000E226E57EF62
:1023AC0012F01AC0D9FF1BC0DAFFDF30E832E83276
:1023BC00070B1C6E010E1D6E1C2AE7EF11F0D89056
:1023CC001D361C2EE5EF11F01D50FF0A1E6E1AC0B3
:1023DC00D9FF1BC0DAFFDF50070B1F6E1F50020D19
:1023EC00CC0EF324D96E000EF420DA6EDECF20F082
:1023FC00DDCF21F020C0D9FF21C0DAFF1E50DF163F
:10240C0057EF12F01AC0D9FF1BC0DAFFDF30E832E9
:10241C00E832070B1C6E010E1D6E1C2A18EF12F011
:10242C00D8901D361C2E16EF12F01AC0D9FF1BC007
:10243C00DAFFDF50070B1E6E1E50020DCC0EF3247C
:10244C00D96E000EF420DA6EDECF1FF0DDCF20F057
:10245C001FC0D9FF20C0DAFF1D50DF1257EF12F05A
:10246C001AC0D9FF1BC0DAFFDFBC3FEF12F042EFFE
:10247C0012F0010E43EF12F0000E1C6E1D6A1D507F
:10248C00000AD8B44CEF12F0D3EF11F01C50000A34
:10249C00D8B4D7EF11F0010AD8B408EF12F0D3EF8B
:1024AC0011F022501200010E236E1A501B10D8B4DA
:1024BC0062EF12F064EF12F075EF12F01AC0D9FF50
:1024CC001BC0DAFFDF30E832E832070B1D6E070E57
:1024DC001D6473EF12F075EF12F0D8EF12F0000ECE
:1024EC00236EEDEF12F01AC0D9FF1BC0DAFFDF30FC
:1024FC00E832E832070B1D6E010E1E6E1D2A89EFA5
:10250C0012F0D8901E361D2E87EF12F01E50FF0AC7
:10251C001F6E1AC0D9FF1BC0DAFFDF50070B206EED
:10252C002050020DC20EF324D96E000EF420DA6E88
:10253C00DECF21F0DDCF22F021C0D9FF22C0DAFF9F
:10254C001F50DF16EDEF12F01AC0D9FF1BC0DAFFD7
:10255C00DF30E832E832070B1D6E010E1E6E1D2AAD
:10256C00BAEF12F0D8901E361D2EB8EF12F01AC02A
:10257C00D9FF1BC0DAFFDF50070B1F6E1F50020D77
:10258C00C20EF324D96E000EF420DA6EDECF20F0EA
:10259C00DDCF21F020C0D9FF21C0DAFF1E50DF12A1
:1025AC00EDEF12F01C501D6E1E6A1E50000AD8B4BE
:1025BC00E2EF12F075EF12F01D50000AD8B479EF6B
:1025CC0012F0010AD8B4AAEF12F075EF12F02350F2
:1025DC001200000E346E30503110D8A4F8EF12F007
:1025EC00FAEF12F0FEEF12F0000E356E81EF13F0E1
:1025FC0030C024F031C025F0EBEC17F0356E010E35
:10260C003024246E000E3120256EEBEC17F0356E65
:10261C00000E346E34503024326E000E3120336E86
:10262C00020E3224246E000E3320256EEBEC17F0D4
:10263C00342A070E346425EF13F027EF13F010EF54
:10264C0013F0340E326EF20EE82EFED7322EFCD77B
:10265C0030C027F031C028F0380E296E76EC16F019
:10266C000D0E326EFC0EE82EFED7322EFCD730C08B
:10267C0027F031C028F0380E296E76EC16F0640E77
:10268C00E82EFED730C027F031C028F0380E296E66
:10269C0076EC16F030C027F031C028F0010E296E10
:1026AC0076EC16F030C027F031C028F0020E296EFF
:1026BC0076EC16F030C027F031C028F0060E296EEB
:1026CC0076EC16F030C027F031C028F00C0E296ED5
:1026DC0076EC16F030C027F031C028F0380E296E99
:1026EC0076EC16F030C027F031C028F0800E296E41
:1026FC0076EC16F0356E35501200000E306E2C5004
:10270C002D10D8A48CEF13F08EEF13F092EF13F082
:10271C00000E316E15EF14F02CC024F02DC025F0F6
:10272C00EBEC17F0316E010E2C24246E000E2D20D4
:10273C00256EEBEC17F0316E000E306E30502C2401
:10274C002E6E000E2D202F6E020E2E24246E000EE7
:10275C002F20256EEBEC17F0302A030E3064B9EF06
:10276C0013F0BBEF13F0A4EF13F0340E2E6EF20E39
:10277C00E82EFED72E2EFCD72CC028F02DC029F029
:10278C00380E2A6EB2EC17F00D0E2E6EFC0EE82EE3
:10279C00FED72E2EFCD72CC028F02DC029F0380ED9
:1027AC002A6EB2EC17F0640EE82EFED72CC028F07F
:1027BC002DC029F0380E2A6EB2EC17F02CC028F080
:1027CC002DC029F0010E2A6EB2EC17F02CC028F0A7
:1027DC002DC029F0020E2A6EB2EC17F02CC028F096
:1027EC002DC029F0060E2A6EB2EC17F02CC028F082
:1027FC002DC029F00C0E2A6EB2EC17F02CC028F06C
:10280C002DC029F0280E2A6EB2EC17F02CC028F03F
:10281C002DC029F0800E2A6EB2EC17F0316E3150BB
:10282C00120001500210D8B41EEF14F020EF14F077
:10283C0031EF14F001C0D9FF02C0DAFFDF30E8320B
:10284C00E832070B046E070E04642FEF14F031EF1F
:10285C0014F092EF14F0A7EF14F001C0D9FF02C0EE
:10286C00DAFFDF30E832E832070B046E010E056E3A
:10287C00042A43EF14F0D8900536042E41EF14F0DF
:10288C000550FF0A066E01C0D9FF02C0DAFFDF5007
:10289C00070B076E0750020DC20EF324D96E000E03
:1028AC00F420DA6EDECF08F0DDCF09F008C0D9FFD6
:1028BC0009C0DAFF0650DF16A7EF14F001C0D9FFEC
:1028CC0002C0DAFFDF30E832E832070B046E010E8B
:1028DC00056E042A74EF14F0D8900536042E72EFAE
:1028EC0014F001C0D9FF02C0DAFFDF50070B066EEF
:1028FC000650020DC20EF324D96E000EF420DA6ECF
:10290C00DECF07F0DDCF08F007C0D9FF08C0DAFF33
:10291C000550DF12A7EF14F00350046E056A055042
:10292C00000AD8B49CEF14F031EF14F00450000AF4
:10293C00D8B433EF14F0010AD8B464EF14F031EFCB
:10294C0014F012001C341D34236E2350D8A4B1EFA4
:10295C0014F0B3EF14F0BDEF14F0000E1A6E000E6D
:10296C001B6E000E1C6E000E1D6E2AEF15F01AC0A9
:10297C001EF01BC01FF01CC020F01DC021F0200E4B
:10298C00CDEF14F0D890213220321F321E32E82EB7
:10299C00C8EF14F01E50226E1C8EFF0E1A16FF0E7E
:1029AC001B16FF0E1C16000E1D16960E235E23BE64
:1029BC00E4EF14F0E2EF14F0FAEF14F02350800A75
:1029CC00970FD8B0ECEF14F0EEEF14F0F0EF14F02A
:1029DC00B3EF14F0D8901D321C321B321A32233E46
:1029EC00F0EF14F012EF15F01F0E236400EF15F04A
:1029FC0002EF15F00AEF15F0B3EF14F0D8901A3679
:102A0C001B361C361D3623062350D8A410EF15F0A8
:102A1C0012EF15F004EF15F02250D8B418EF15F0A2
:102A2C001AEF15F022EF15F01D1E1C1E1B1E1A6C42
:102A3C00000E1B221C221D221AC01AF01BC01BF0F8
:102A4C001CC01CF01DC01DF01200010E00018627D9
:102A5C00000E8723882389235F0E016E000E026E01
:102A6C0067EC19F090EF15F0650E0A6E000E0B6E08
:102A7C003CEC17F0250E026E100E036E000E056E68
:102A8C00080E046E86EC18F0ADEF15F0650E0A6EAC
:102A9C00000E0B6E77EC17F0110E026E100E036E1B
:102AAC00000E056E090E046E86EC18F0ADEF15F0F5
:102ABC00640E0A6E000E0B6E3CEC17F02E0E026EBE
:102ACC00100E036E000E056E080E046E86EC18F0E8
:102ADC00ADEF15F0640E0A6E000E0B6E77EC17F06E
:102AEC001B0E026E100E036E000E056E090E046EA8
:102AFC0086EC18F0ADEF15F0650E0A6E000E0B6E3D
:102B0C0077EC17F0640E0A6E000E0B6E77EC17F074
:102B1C00ADEF15F05F500E6E0F6A0F50000AD8B46F
:102B2C009AEF15F082EF15F00E50610AD8B43AEF17
:102B3C0015F0030AD8B44CEF15F0010AD8B45EEFC7
:102B4C0015F0070AD8B470EF15F082EF15F01200EB
:102B5C0020EE07F01A50D9261B50DA22DFAAB9EF63
:102B6C0015F0BBEF15F01BEF16F0AB8820EE0CF058
:102B7C001A50D9261B50DA22DECF4BF0DDCF4CF0A9
:102B8C0020EE0EF01A50D9261B50DA22DECF49F077
:102B9C00DDCF4AF020EE10F01A50D9261B50DA2265
:102BAC00DECF47F0DDCF48F020EE07F01A50D926E3
:102BBC001B50DA22DFACE5EF15F0E7EF15F0EDEF87
:102BCC0015F09D8A9D8AF28EF28CFBEF15F020EEAB
:102BDC0007F01A50D9261B50DA22DFBCF8EF15F09B
:102BEC00FAEF15F0FBEF15F09D9A20EE07F01A5056
:102BFC00D9261B50DA22DFAE06EF16F008EF16F0DE
:102C0C000BEF16F0AB8C1BEF16F020EE07F01A5002
:102C1C00D9261B50DA22DFBE16EF16F018EF16F08D
:102C2C001BEF16F0AB9C1BEF16F0120020EE05F01C
:102C3C001A50D9261B50DA22DFAA27EF16F029EFFB
:102C4C0016F075EF16F0AC8A20EE0AF01A50D92661
:102C5C001B50DA22DECF4DF0DDCF4EF020EE05F02A
:102C6C001A50D9261B50DA22DFAC3FEF16F041EF99
:102C7C0016F047EF16F09D889D88F28EF28C55EF7A
:102C8C0016F020EE05F01A50D9261B50DA22DFBCC4
:102C9C0052EF16F054EF16F055EF16F09D9820EE0B
:102CAC0005F01A50D9261B50DA22DFAE60EF16F071
:102CBC0062EF16F065EF16F0AC8C75EF16F020EEA7
:102CCC0005F01A50D9261B50DA22DFBE70EF16F031
:102CDC0072EF16F075EF16F0AC9C75EF16F0120053
:102CEC00000E2F6E27502810D8A47FEF16F081EF1E
:102CFC0016F085EF16F0000E2E6EBCEF16F027C006
:102D0C001AF028C01BF0000E1C6E59EC12F0000ECD
:102D1C002F6E2F5027242A6E000E28202B6E020EA9
:102D2C002A241A6E000E2B201B6E2FC02CF029C0EB
:102D3C002DF02C2AA4EF16F0D8902D322C2EA2EFC9
:102D4C0016F02D50010B1C6E59EC12F02F2A070EA9
:102D5C002F64B3EF16F0B5EF16F08FEF16F027C017
:102D6C0024F028C025F003EC19F02E6E2E50120022
:102D7C004B504C10D8B4C5EF16F0C7EF16F0D3EF8C
:102D8C0016F002D8D3EF16F00500FA6E4B50FD6E1C
:102D9C004C50FE6EFF6AFA50120049504A10D8B4DB
:102DAC00DAEF16F0DCEF16F0E8EF16F002D8E8EFE9
:102DBC0016F00500FA6E4950FD6E4A50FE6EFF6A21
:102DCC00FA50120047504810D8B4EFEF16F0F1EF5C
:102DDC0016F0FDEF16F002D8FDEF16F00500FA6EB6
:102DEC004750FD6E4850FE6EFF6AFA5012001200FA
:102DFC00010E2B6E28502910D8A407EF17F009EFFD
:102E0C0017F00DEF17F0000E2B6E3AEF17F05EC0B7
:102E1C002CF028C0D9FF29C0DAFFDF500F0B2A6E27
:102E2C002C502A18F80B2A182C6E28C0D9FF29C050
:102E3C00DAFFDF38070B2A6E2A462A462A462C5020
:102E4C002A18C70B2A182C6E2C9C28C0D9FF29C015
:102E5C00DAFFDFAE02D02C8E01D02C9E2C0E246E0D
:102E6C00000E256EEBEC17F02B5012000A500B10D5
:102E7C00D8A443EF17F045EF17F047EF17F076EFB4
:102E8C0017F05DC00DF00AC0D9FF0BC0DAFFDF50A0
:102E9C000F0B0C6E0D500C18F80B0C180D6E0AC0A5
:102EAC00D9FF0BC0DAFFDF38070B0C6E0C460C4653
:102EBC000C460D500C18C70B0C180D6E0D9C0AC04F
:102ECC00D9FF0BC0DAFFDFAE02D00D8E01D00D9E04
:102EDC000D0E016E000E026E010E036E17EC14F057
:102EEC0012000A500B10D8A47EEF17F080EF17F0E9
:102EFC0082EF17F0B1EF17F05CC00DF00AC0D9FFEC
:102F0C000BC0DAFFDF500F0B0C6E0D500C18F80BCA
:102F1C000C180D6E0AC0D9FF0BC0DAFFDF38070B97
:102F2C000C6E0C460C460C460D500C18C70B0C18AE
:102F3C000D6E0D9C0AC0D9FF0BC0DAFFDFAE02D0BC
:102F4C000D8E01D00D9E0D0E016E000E026E000E48
:102F5C00036E17EC14F0120028502910D8A4B9EF06
:102F6C0017F0BBEF17F0BFEF17F0000E2B6EE9EF69
:102F7C0017F028C01AF029C01BF0000E1C6E59EC7B
:102F8C0012F02B6E28C024F029C025F02A380F0B24
:102F9C00266E21EC18F02B6E28C024F029C025F0E9
:102FAC001EEC19F02B6E28C024F029C025F02AC085
:102FBC0026F021EC18F02B6E28C024F029C025F047
:102FCC001EEC19F02B6E2B50120024502510D8B487
:102FDC00F2EF17F0F4EF17F005EF18F024C0D9FF5B
:102FEC0025C0DAFFDF30E832E832070B266E070E19
:102FFC00266403EF18F005EF18F009EF18F0000E37
:10300C00276E1FEF18F024C01AF025C01BF0B7EC88
:10301C0011F0276E24C01AF025C01BF024C0D9FF74
:10302C0025C0DAFF000EDFBE010E1C6E59EC12F04B
:10303C00276E27501200020E24241A6E000E252033
:10304C001B6E2650010B1C6E59EC12F0030E24243F
:10305C001A6E000E25201B6ED8902630010B1C6EAC
:10306C0059EC12F0040E24241A6E000E25201B6E4F
:10307C002640E8423F0B010B1C6E59EC12F0050E7A
:10308C0024241A6E000E25201B6E2638E8461F0BD2
:10309C00010B1C6E59EC12F0276E27501200720EA9
:1030AC00F66E320EF76E000EF86E00EEB8F010EE03
:1030BC002EF00900F5CFEEFFE550E150FAE1060ED7
:1030CC00F66E340EF76E000EF86E00EE60F010EE39
:1030DC0006F00900F5CFEEFFE550E150FAE100EE05
:1030EC0080F0380EEE6AE806FDE100EE47F0190EAE
:1030FC00EE6AE806FDE16690669200017CEF19F03D
:10310C00000E086E000E0A6E000E096E000E0A6E9E
:10311C00000E096EA4EF18F009500224066E0A5036
:10312C000320076E06C0F6FF07C0F7FFF86A080019
:10313C00F5509DEC19F0086E094A0A2A0450095CF6
:10314C0005500A58D8A0ADEF18F0AFEF18F092EF79
:10315C0018F008501200CC0E01010E6F330E0F6FD9
:10316C00120E106F340E116F560E0C6F2A0E0D6F5F
:10317C00BC0E0A6F330E0B6F800E006F250E016FA5
:10318C00000E026F000E036F000E046F058B058D91
:10319C00059F078B078D079F000E0001FC6F010E2A
:1031AC00FD6FDAEC18F012000001FC51FD11D8A4EF
:1031BC00E2EF18F0E4EF18F0E8EF18F0000EFE6FF5
:1031CC0001EF19F0AB9E948E948CFCC045F0FDC0C1
:1031DC0046F01EEC08F0FCC01AF0FDC01BF01CEC15
:1031EC0016F0FCC01AF0FDC01BF0AEEC15F0AB8E67
:1031FC00010E0001FE6FFE511200010E24241A6E06
:10320C00000E25201B6E010E1C6E59EC12F0030EE5
:10321C00E82EFED700F0010E24241A6E000E252095
:10322C001B6E000E1C6E59EC12F0266E265012000E
:10323C00010E24241A6E000E25201B6E010E1C6E2E
:10324C0059EC12F0030EE82EFED700F0010E2424E8
:10325C001A6E000E25201B6E000E1C6E59EC12F01F
:10326C00266E26501200800F810F820F830F840F61
:10327C00890F8A0F8B0F8C0F8D0F920F930F940F5A
:10328C00950F960F323A030B131B232B333B020A79
:10329C00121A222A9D984D504E10D8B458EF19F09E
:1032AC005AEF19F066EF19F002D866EF19F0050025
:1032BC00FA6E4D50FD6E4E50FE6EFF6AFA501200C3
:1032CC0012009EAA6CEF19F06EEF19F078EF19F05E
:1032DC0001C0D9FF02C0DAFFAECFDFFF010E036ED3
:1032EC007AEF19F0000E036E0350120006EC1AF080
:1032FC00B1EC18F0650E286E000E296EFEEC16F07F
:10330C00640E286E000E296EFEEC16F08CEF19F090
:10331C0007EF00F0E00E2C6E000E2D6E83EC13F018
:10332C00D60E306E000E316EEFEC12F01200016E04
:10333C00ACA2A3EF19F0A5EF19F09EEF19F09D8840
:10334C0001C0ADFF010E1200016EF2900150D8A425
:10335C00B2EF19F0B4EF19F0B6EF19F0B6EF19F0AF
:10336C001200016EF2900150D8A4BFEF19F0C1EF1A
:10337C0019F0C3EF19F0C3EF19F01200016EF290BF
:10338C000150D8A4CCEF19F0CEEF19F0D0EF19F012
:10339C00D0EF19F01200016EF2900150D8A4D9EFC1
:1033AC0019F0DBEF19F0DDEF19F0DDEF19F0120079
:1033BC00010E00018A27000E8B238C238D23120013
:1033CC00040E016E000E026E67EC19F01200A19251
:1033DC005050B36E4FC0B2FF12009E905250CF6E41
:1033EC0051C0CEFF1200F2945450D76E53C0D6FF8A
:1033FC0012009E9257C0CCFF120001010101120372
:10340C0090EC19F012000CEC1AF01200AB98AB888F
:10341C0012009E961200A1961200F0921200F090EB
:10342C001200F2921200A19012009E9412009E9C27
:02343C0012007C
:020000040020DA
:08000000FFFFFFFFFFFFFFFF00
:020000040030CA
:0E000000FF020912FF8181FF0FC00FE00F40C9
:00000001FF
